{
  "_format": "hh-sol-artifact-1",
  "contractName": "Mood",
  "sourceName": "contracts/Mood.sol",
  "abi": [
    {
      "inputs": [
        {
          "internalType": "string",
          "name": "_mood",
          "type": "string"
        }
      ],
      "name": "changemood",
      "outputs": [
        {
          "internalType": "bool",
          "name": "",
          "type": "bool"
        }
      ],
      "stateMutability": "nonpayable",
      "type": "function"
    },
    {
      "inputs": [],
      "name": "currentmood",
      "outputs": [
        {
          "internalType": "string",
          "name": "",
          "type": "string"
        }
      ],
      "stateMutability": "view",
      "type": "function"
    },
    {
      "inputs": [],
      "name": "getmood",
      "outputs": [
        {
          "internalType": "string",
          "name": "",
          "type": "string"
        }
      ],
      "stateMutability": "view",
      "type": "function"
    }
  ],
  "bytecode": "0x60806040526040518060400160405280600a81526020017f4920616d20486170707900000000000000000000000000000000000000000000815250600090816200004a9190620002d9565b503480156200005857600080fd5b50620003c0565b600081519050919050565b7f4e487b7100000000000000000000000000000000000000000000000000000000600052604160045260246000fd5b7f4e487b7100000000000000000000000000000000000000000000000000000000600052602260045260246000fd5b60006002820490506001821680620000e157607f821691505b602082108103620000f757620000f662000099565b5b50919050565b60008190508160005260206000209050919050565b60006020601f8301049050919050565b600082821b905092915050565b600060088302620001617fffffffffffffffffffffffffffffffffffffffffffffffffffffffffffffffff8262000122565b6200016d868362000122565b95508019841693508086168417925050509392505050565b6000819050919050565b6000819050919050565b6000620001ba620001b4620001ae8462000185565b6200018f565b62000185565b9050919050565b6000819050919050565b620001d68362000199565b620001ee620001e582620001c1565b8484546200012f565b825550505050565b600090565b62000205620001f6565b62000212818484620001cb565b505050565b5b818110156200023a576200022e600082620001fb565b60018101905062000218565b5050565b601f82111562000289576200025381620000fd565b6200025e8462000112565b810160208510156200026e578190505b620002866200027d8562000112565b83018262000217565b50505b505050565b600082821c905092915050565b6000620002ae600019846008026200028e565b1980831691505092915050565b6000620002c983836200029b565b9150826002028217905092915050565b620002e4826200005f565b67ffffffffffffffff8111156200030057620002ff6200006a565b5b6200030c8254620000c8565b620003198282856200023e565b600060209050601f8311600181146200035157600084156200033c578287015190505b620003488582620002bb565b865550620003b8565b601f1984166200036186620000fd565b60005b828110156200038b5784890151825560018201915060208501945060208101905062000364565b86831015620003ab5784890151620003a7601f8916826200029b565b8355505b6001600288020188555050505b505050505050565b61078580620003d06000396000f3fe608060405234801561001057600080fd5b50600436106100415760003560e01c80630b246507146100465780631f0f8cdb1461006457806326bd856214610094575b600080fd5b61004e6100b2565b60405161005b919061027d565b60405180910390f35b61007e600480360381019061007991906103e8565b610140565b60405161008b919061044c565b60405180910390f35b61009c61015b565b6040516100a9919061027d565b60405180910390f35b600080546100bf90610496565b80601f01602080910402602001604051908101604052809291908181526020018280546100eb90610496565b80156101385780601f1061010d57610100808354040283529160200191610138565b820191906000526020600020905b81548152906001019060200180831161011b57829003601f168201915b505050505081565b60008160009081610151919061067d565b5060019050919050565b60606000805461016a90610496565b80601f016020809104026020016040519081016040528092919081815260200182805461019690610496565b80156101e35780601f106101b8576101008083540402835291602001916101e3565b820191906000526020600020905b8154815290600101906020018083116101c657829003601f168201915b5050505050905090565b600081519050919050565b600082825260208201905092915050565b60005b8381101561022757808201518184015260208101905061020c565b60008484015250505050565b6000601f19601f8301169050919050565b600061024f826101ed565b61025981856101f8565b9350610269818560208601610209565b61027281610233565b840191505092915050565b600060208201905081810360008301526102978184610244565b905092915050565b6000604051905090565b600080fd5b600080fd5b600080fd5b600080fd5b7f4e487b7100000000000000000000000000000000000000000000000000000000600052604160045260246000fd5b6102f582610233565b810181811067ffffffffffffffff82111715610314576103136102bd565b5b80604052505050565b600061032761029f565b905061033382826102ec565b919050565b600067ffffffffffffffff821115610353576103526102bd565b5b61035c82610233565b9050602081019050919050565b82818337600083830152505050565b600061038b61038684610338565b61031d565b9050828152602081018484840111156103a7576103a66102b8565b5b6103b2848285610369565b509392505050565b600082601f8301126103cf576103ce6102b3565b5b81356103df848260208601610378565b91505092915050565b6000602082840312156103fe576103fd6102a9565b5b600082013567ffffffffffffffff81111561041c5761041b6102ae565b5b610428848285016103ba565b91505092915050565b60008115159050919050565b61044681610431565b82525050565b6000602082019050610461600083018461043d565b92915050565b7f4e487b7100000000000000000000000000000000000000000000000000000000600052602260045260246000fd5b600060028204905060018216806104ae57607f821691505b6020821081036104c1576104c0610467565b5b50919050565b60008190508160005260206000209050919050565b60006020601f8301049050919050565b600082821b905092915050565b6000600883026105297fffffffffffffffffffffffffffffffffffffffffffffffffffffffffffffffff826104ec565b61053386836104ec565b95508019841693508086168417925050509392505050565b6000819050919050565b6000819050919050565b600061057a6105756105708461054b565b610555565b61054b565b9050919050565b6000819050919050565b6105948361055f565b6105a86105a082610581565b8484546104f9565b825550505050565b600090565b6105bd6105b0565b6105c881848461058b565b505050565b5b818110156105ec576105e16000826105b5565b6001810190506105ce565b5050565b601f82111561063157610602816104c7565b61060b846104dc565b8101602085101561061a578190505b61062e610626856104dc565b8301826105cd565b50505b505050565b600082821c905092915050565b600061065460001984600802610636565b1980831691505092915050565b600061066d8383610643565b9150826002028217905092915050565b610686826101ed565b67ffffffffffffffff81111561069f5761069e6102bd565b5b6106a98254610496565b6106b48282856105f0565b600060209050601f8311600181146106e757600084156106d5578287015190505b6106df8582610661565b865550610747565b601f1984166106f5866104c7565b60005b8281101561071d578489015182556001820191506020850194506020810190506106f8565b8683101561073a5784890151610736601f891682610643565b8355505b6001600288020188555050505b50505050505056fea264697066735822122069a49249bcff7674a3403372e17224aafe1c2a4d62dd10b79663655cb5933cb164736f6c63430008110033",
  "linkReferences": {},
  "deployedLinkReferences": {}
}