{"contracts/SimpleContract.sol":{"SimpleContract":{"abi":[{"inputs":[],"stateMutability":"nonpayable","type":"constructor"},{"inputs":[],"name":"mymethod","outputs":[{"internalType":"uint256","name":"","type":"uint256"}],"stateMutability":"view","type":"function"},{"inputs":[],"name":"x","outputs":[{"internalType":"uint256","name":"","type":"uint256"}],"stateMutability":"view","type":"function"}],"evm":{"bytecode":{"linkReferences":{},"object":"608060405234801561001057600080fd5b50600560008190555060e0806100276000396000f3fe6080604052348015600f57600080fd5b506004361060325760003560e01c806303980cfe1460375780630c55699c146051575b600080fd5b603d606b565b604051604891906091565b60405180910390f35b60576074565b604051606291906091565b60405180910390f35b60008054905090565b60005481565b6000819050919050565b608b81607a565b82525050565b600060208201905060a460008301846084565b9291505056fea264697066735822122009ca85ec2448dc73ee95afacce4eb2c6f34f71b9d359444db4953c9476bd4ee464736f6c63430008110033","opcodes":"PUSH1 0x80 PUSH1 0x40 MSTORE CALLVALUE DUP1 ISZERO PUSH2 0x10 JUMPI PUSH1 0x0 DUP1 REVERT JUMPDEST POP PUSH1 0x5 PUSH1 0x0 DUP2 SWAP1 SSTORE POP PUSH1 0xE0 DUP1 PUSH2 0x27 PUSH1 0x0 CODECOPY PUSH1 0x0 RETURN INVALID PUSH1 0x80 PUSH1 0x40 MSTORE CALLVALUE DUP1 ISZERO PUSH1 0xF JUMPI PUSH1 0x0 DUP1 REVERT JUMPDEST POP PUSH1 0x4 CALLDATASIZE LT PUSH1 0x32 JUMPI PUSH1 0x0 CALLDATALOAD PUSH1 0xE0 SHR DUP1 PUSH4 0x3980CFE EQ PUSH1 0x37 JUMPI DUP1 PUSH4 0xC55699C EQ PUSH1 0x51 JUMPI JUMPDEST PUSH1 0x0 DUP1 REVERT JUMPDEST PUSH1 0x3D PUSH1 0x6B JUMP JUMPDEST PUSH1 0x40 MLOAD PUSH1 0x48 SWAP2 SWAP1 PUSH1 0x91 JUMP JUMPDEST PUSH1 0x40 MLOAD DUP1 SWAP2 SUB SWAP1 RETURN JUMPDEST PUSH1 0x57 PUSH1 0x74 JUMP JUMPDEST PUSH1 0x40 MLOAD PUSH1 0x62 SWAP2 SWAP1 PUSH1 0x91 JUMP JUMPDEST PUSH1 0x40 MLOAD DUP1 SWAP2 SUB SWAP1 RETURN JUMPDEST PUSH1 0x0 DUP1 SLOAD SWAP1 POP SWAP1 JUMP JUMPDEST PUSH1 0x0 SLOAD DUP2 JUMP JUMPDEST PUSH1 0x0 DUP2 SWAP1 POP SWAP2 SWAP1 POP JUMP JUMPDEST PUSH1 0x8B DUP2 PUSH1 0x7A JUMP JUMPDEST DUP3 MSTORE POP POP JUMP JUMPDEST PUSH1 0x0 PUSH1 0x20 DUP3 ADD SWAP1 POP PUSH1 0xA4 PUSH1 0x0 DUP4 ADD DUP5 PUSH1 0x84 JUMP JUMPDEST SWAP3 SWAP2 POP POP JUMP INVALID LOG2 PUSH5 0x6970667358 0x22 SLT KECCAK256 MULMOD 0xCA DUP6 0xEC 0x24 BASEFEE 0xDC PUSH20 0xEE95AFACCE4EB2C6F34F71B9D359444DB4953C94 PUSH23 0xBD4EE464736F6C63430008110033000000000000000000 "},"methodIdentifiers":{"mymethod()":"03980cfe","x()":"0c55699c"}}}}}